:100000000C94CD000C946D050C9446050C941F05C2
:100010000C94F8040C94F5000C94F5000C94D104A5
:100020000C94F5000C94F5000C9494050C940306C4
:100030000C94F5000C94F5000C94F5000C94F5006C
:100040000C94F5000C94F5000C94F5000C94F5005C
:100050000C94F5000C94F5000C94F5000C948704B6
:100060000C94F5000C94F5000C94F5000C94F5003C
:100070000C94F5000C94F5000C94F5000C94F5002C
:100080000C94F5000C94F5000C94F5000C94F5001C
:100090000C94F5000C94F5000C94F5000C94F5000C
:1000A0000C94F5000C94F5000C94F500080B00027C
:1000B0000202000009040000010202000005240001
:1000C0001001052401010104240206052406000193
:1000D0000705810310004009040100020A00000026
:1000E00007050202400000070583024000000403E8
:1000F000090412010002EF02014041233780000190
:100100000102030141726475696E6F204C4C43001B
:1001100041726475696E6F204D6963726F000000F3
:100120000000240027002A002D00300000000002FB
:1001300000090F0000030401000C00000000000093
:100140000000000000000000000000040802011090
:100150004080401020408040800802040180402000
:1001600010020110801020404020000000002500F7
:1001700028002B002E0031000404040404030405AD
:100180000202020204030202020206060606060634
:100190000404020202040400350811241FBECFEF3C
:1001A000DAE0DEBFCDBF11E0A0E0B1E0EEEDF1E2BC
:1001B00002C005900D92A633B107D9F722E0A6E35D
:1001C000B1E001C01D92A830B207E1F710E0CDEC1C
:1001D000D0E004C02197FE010E94E710CC3CD1077B
:1001E000C9F70E9400090C94ED100C940000FC016A
:1001F00080916001882311F13FB7F89482E08093E9
:10020000E9002091F200822F90E01816190614F4EC
:1002100081E090E0882339F0289A44E640935F011A
:100220004091F1004083222339F02091F200211106
:1002300003C02BE62093E8003FBF08958FEF9FEFA8
:1002400008952FB7F89483E08093E9009091E80037
:10025000892F807295FF04C09091F20080E4891B81
:100260002FBF08958091570181110DC082E08093C6
:10027000530184E08093540110925601109255016D
:1002800081E08093570183E591E00895282F30E0C5
:10029000F901E45DFE4F9491F901E55BFE4F849115
:1002A00028583E4FF9012491222309F430C09923A4
:1002B000E9F091509F30D0F4E92FF0E0EE59FE4F75
:1002C0000C94E71090019401710188018C01760172
:1002D0007601760197019D01A101A501AB0176018F
:1002E000AF01909180009F7790938000E22FF0E023
:1002F000EE0FFF1FE659FE4FA591B4919FB7F894FA
:10030000EC91611132C080958E238C939FBF08952C
:10031000909180009F7DE8CF90918000977FE4CFFF
:1003200094B59F7794BDE2CF94B59F7DFBCF90911C
:1003300090009F7790939000D9CF909190009F7DEF
:10034000F9CF90919000977FF5CF9091C0009F7763
:100350009093C000CBCF9091C0009F7DF9CF90913A
:10036000C200977F9093C200C1CF8E2BCECFCF9388
:10037000DF9390E0FC01E55BFE4F249188589E4F8F
:10038000FC0184918823D1F090E0880F991FFC0133
:10039000E25EFE4FA591B491FC01E659FE4FC59176
:1003A000D491623071F49FB7F8943C91822F80957C
:1003B00083238C93E8812E2B28839FBFDF91CF91DD
:1003C00008958FB7F894EC912E2B2C938FBFF6CF16
:1003D0003FB7F89480914F0190915001A091510145
:1003E000B091520126B5A89B05C02F3F19F0019688
:1003F000A11DB11D3FBFBA2FA92F982F8827BC017F
:10040000CD01620F711D811D911D42E0660F771FA6
:10041000881F991F4A95D1F70895CF92DF92EF92E6
:10042000FF920E94E8016B017C010E94E8016C19B7
:100430007D098E099F09683E734081059105A8F3E7
:10044000FF90EF90DF90CF90089508954091400184
:100450005091410120913E0130913F0142175307D5
:10046000B4F49091E8009570E1F39091E80092FD6A
:1004700019C08093F1008091400190914101019653
:100480008F739927892B19F48EEF8093E800809160
:100490004001909141010196909341018093400168
:1004A00081E0089580E00895EF92FF920F931F93EB
:1004B000CF93DF93F82E192FE62E042F81E0860FBD
:1004C000880F0E94260283E00E942602CF2DD12FA2
:1004D000EC0EFD2EF11CCE15DF05B9F007FF13C0A1
:1004E000FE0184910E942602182F80E00E942602BD
:1004F000812321968111EFCFDF91CF911F910F9131
:10050000FF90EF9008958881EDCF81E0F5CFDF92E5
:10051000EF92FF920F931F93CF93DF93D82E8A0110
:10052000EB017B01E40EF51ECE15DF0559F0D7FE79
:1005300012C0FE0184910E94260221968111F4CFFF
:100540000FEF1FEFC801DF91CF911F910F91FF9027
:10055000EF90DF9008958881EECF0F931F93CF9394
:10056000DF931F92CDB7DEB782E0898342E450E08B
:100570006CEA70E080E80E9487020E943201DC0190
:1005800012960D911C910115110589F0D801ED917C
:10059000FC910280F381E02DBE016F5F7F4FC801A7
:1005A000099597FD04C0F80100851185ECCF89817C
:1005B0000F90DF91CF911F910F910895615030F00E
:1005C0002091F100FC0120830196F8CF289A84E65F
:1005D00080935F0108958F929F92AF92BF92CF92C6
:1005E000DF92EF92FF920F931F93CF93DF936C01F3
:1005F0007B018A0180910B01882309F458C0809106
:100600006001882309F453C08091440180FF05C034
:100610008091E00082608093E000E801B12C8AEFD5
:10062000A82E93E0892E2AE3922E209711F4BB2066
:10063000B9F10E942101811106C0AA94AA20B9F142
:100640000E940D02F2CF8C171D0611F00CF08C2FBA
:100650009FB7F8948092E9002091E80025FD02C040
:100660009FBFE3CF282F30E0C21BD30BF70181508F
:1006700020F041914093F100FACFE20EF31EBB202F
:1006800021F09092E800B12CEBCF8091E80085FD3D
:10069000E7CF9092E800BB24B394209709F3F3CFFF
:1006A0005D9A84E680934301101611063CF081E0C8
:1006B00090E0F6019383828310E000E0C801DF91AF
:1006C000CF911F910F91FF90EF90DF90CF90BF904F
:1006D000AF909F908F900895CF93DF931F92CDB7E7
:1006E000DEB76983DC01ED91FC910280F381E02D9E
:1006F00041E050E0BE016F5F7F4F09950F90DF91A1
:10070000CF91089583E08093E9008091F2008823DF
:1007100019F08AE38093E80008950E94210190E097
:100720000895CF93DF931F92CDB7DEB7FC01848588
:10073000958597FD08C02FEF3FEF358724870F90F1
:10074000DF91CF910895CE0101960E94F7000197A5
:1007500019F4898190E0F3CF8FEF9FEFF0CF0F93E3
:100760001F93CF93DF931F92CDB7DEB78C01FC01AF
:100770008485958597FF0BC0CE0101960E94F700F6
:10078000019771F4898190E0F80195878487F801D9
:10079000848595850F90DF91CF911F910F910895DA
:1007A0008FEF9FEFF1CFFC018485958597FD0BC0FE
:1007B0009FB7F89482E08093E9008091F2009FBF98
:1007C00090E0019608959FB7F89482E08093E90045
:1007D0008091F2009FBF90E008950E94E80160932D
:1007E0003A0170933B0180933C0190933D0140910D
:1007F0003A0150913B0160913C0170913D01809123
:10080000360190913701A0913801B09139018417D8
:100810009507A607B70764F580913A0190913B01CF
:10082000A0913C01B0913D014091360150913701BA
:100830006091380170913901841B950BA60BB70BA1
:1008400080934A0190934B01A0934C01B0934D01CA
:1008500080913A0190913B01A0913C01B0913D0102
:100860008093360190933701A0933801B0933901FA
:1008700008958F929F92AF92BF920F931F93CF9341
:10088000DF93CDB7DEB7A1970FB6F894DEBF0FBEEA
:10089000CDBF19A2423008F44AE08E010F5D1F4F10
:1008A000842E912CB12CA12CA50194010E947F0EC5
:1008B000E62FB901CA01EA3044F5E05DD801EE93B4
:1008C0008D01232B242B252B79F790E080E01097C6
:1008D00069F0FD0101900020E9F73197AF014A1B53
:1008E0005B0BBD0181E691E00E94EB02A1960FB681
:1008F000F894DEBF0FBECDBFDF91CF911F910F9156
:10090000BF90AF909F908F900895E95CD7CF1F92D2
:100910000F920FB60F9211242F933F938F939F93B3
:10092000AF93BF938091B1019091B201A091B301B7
:10093000B091B40130914E0123E0230F2D3758F5CB
:100940000196A11DB11D20934E018093B10190939A
:10095000B201A093B301B093B40180914F01909183
:100960005001A0915101B09152010196A11DB11DFC
:1009700080934F0190935001A0935101B093520185
:10098000BF91AF919F918F913F912F910F900FBE8B
:100990000F901F90189526E8230F0296A11DB11DF8
:1009A000D2CF1F920F920FB60F9211242F933F9325
:1009B0004F935F936F937F938F939F93AF93BF9367
:1009C000EF93FF93E0911401F09115010995FF91C8
:1009D000EF91BF91AF919F918F917F916F915F91B7
:1009E0004F913F912F910F900FBE0F901F90189530
:1009F0001F920F920FB60F9211242F933F934F9394
:100A00005F936F937F938F939F93AF93BF93EF9376
:100A1000FF93E0911201F09113010995FF91EF917D
:100A2000BF91AF919F918F917F916F915F914F9106
:100A30003F912F910F900FBE0F901F9018951F920E
:100A40000F920FB60F9211242F933F934F935F9302
:100A50006F937F938F939F93AF93BF93EF93FF9386
:100A6000E0911001F09111010995FF91EF91BF9173
:100A7000AF919F918F917F916F915F914F913F9136
:100A80002F910F900FBE0F901F9018951F920F92ED
:100A90000FB60F9211242F933F934F935F936F9351
:100AA0007F938F939F93AF93BF93EF93FF93E091C7
:100AB0000E01F0910F010995FF91EF91BF91AF9158
:100AC0009F918F917F916F915F914F913F912F9166
:100AD0000F900FBE0F901F9018951F920F920FB698
:100AE0000F9211242F933F934F935F936F937F93B4
:100AF0008F939F93AF93BF93EF93FF93E0910C017C
:100B0000F0910D010995FF91EF91BF91AF919F91E8
:100B10008F917F916F915F914F913F912F910F90A6
:100B20000FBE0F901F9018951F920F920FB60F9245
:100B300011248F939F938091E1009091E100937F26
:100B40009093E10083FF0FC01092E90091E0909331
:100B5000EB001092EC0092E39093ED001092600194
:100B600098E09093F00082FF22C093E09093E90018
:100B70009091F200992319F09AE39093E8009091F4
:100B80004301992341F09091430191509093430187
:100B9000911101C05D9890915F01992341F090916E
:100BA0005F01915090935F01911101C0289884FFDB
:100BB00018C08091E2008E7E81608093E200809177
:100BC000E1008F7E8093E100809144018E7E806100
:100BD000809344019F918F910F900FBE0F901F90B3
:100BE000189580FFF7CF8091E2008E7E8061809320
:100BF000E2008091E1008E7E8093E10080914401CB
:100C00008E7E8160E5CF1F920F920FB60F92112456
:100C1000CF92DF92EF92FF920F931F932F933F9308
:100C20004F935F936F937F938F939F93AF93BF93F4
:100C3000EF93FF93CF93DF93CDB7DEB76C97DEBF13
:100C4000CDBF1092E9008091E80083FF25C068E0E5
:100C5000CE0145960E94DE0282EF8093E8008D89E6
:100C600087FF39C09091E80090FFFCCF982F9076D5
:100C700009F034C19E894F89588D2F89F88C9111C4
:100C800031C0803861F5809145018093F100109268
:100C9000F1008EEF8093E8006C960FB6F894DEBFFB
:100CA0000FBECDBFDF91CF91FF91EF91BF91AF917B
:100CB0009F918F917F916F915F914F913F912F9174
:100CC0001F910F91FF90EF90DF90CF900F900FBE8C
:100CD0000F901F9018959EEF9093E800C7CF109249
:100CE000F100D5CF913059F48111D3CF4130510566
:100CF00081F6809145018D7F80934501CACF933065
:100D000049F48111C6CF4130510519F68091450152
:100D10008260F2CF953041F48091E80080FFFCCFF3
:100D200020682093E300B5CF963009F0A9C00B8D61
:100D30001C8D22E01092E9001092410110924001B6
:100D4000F2122EC010923F0110923E010E94AD029D
:100D50001F8299E09983FA8291E09E8390EA9887B6
:100D60009AEF99872091400130914101275F3F4FD1
:100D70003C832B838D831092E900109241011092E5
:100D8000400110933F0100933E0149E050E0BE0155
:100D90006F5F7F4F80E00E9487020E94AD0279CF93
:100DA00010933F0100933E010E943201DC01129634
:100DB0000D911C910115110509F451C1D801ED9156
:100DC000FC910480F581E02DBE016B5E7F4FC80170
:100DD0000995009709F03EC1F80100851185EACF19
:100DE000F3E0FF120EC08F89882309F440C08230DF
:100DF00061F440E86DE080E191E00E9454028111CD
:100E000048CF81E28093EB0047CF813029F440E85E
:100E10006BE084E091E0F1CF833099F70E943201DA
:100E2000DC011296ED90FC908E010F5F1F4F680160
:100E3000E114F10479F0D701ED91FC910680F7817E
:100E4000E02DB801C7010995080F111DF701E084D5
:100E5000F184EECFD8011C92F60101900020E9F751
:100E60003197BF016C197D0940E0C601C6CF6EEE17
:100E700070E0FB01449150E080E80E94870209CFB6
:100E8000973009F4BECF983021F481E08093F100CF
:100E900000CF993009F0FDCE837009F0B2CFEBE1BD
:100EA000F1E081E031E096E32191222371F080931B
:100EB000E9003093EB00DF0111972C912093EC00B7
:100EC0009093ED008F5F873079F78EE78093EA008B
:100ED0001092EA008F8980936001DBCE8B8D9C8D10
:100EE0001092E900109241011092400190933F014D
:100EF00080933E01898D811192C08E899D89913A9E
:100F000049F4813209F07DCF47E050E064E071E0C0
:100F100080E0B3CF913209F074CF833269F48F89C6
:100F2000988DB0E0A0E08093000190930101A09320
:100F30000201B0930301ADCE803269F48091E800E4
:100F400082FFFCCF67E084E091E00E94DE028BEF3D
:100F50008093E8009ECE823209F09BCE8F898093E9
:100F60000B01EEEFFFE7859194918B3F9C4D51F182
:100F7000E0E0F8E08091040190910501A091060164
:100F8000B0910701803B9440A105B105F1F4809137
:100F90000B0180FD1AC0EE3F8AE0F80789F587E76C
:100FA00097E791838083809160008093420188E17C
:100FB0009BE00FB6F894A895809360000FBE9093C5
:100FC000600067CEEEEFFAE0D5CF80819181873760
:100FD000974709F05ECEA895809160008861809364
:100FE00060008091420180936000EE3F2AE0F207AA
:100FF00089F08091FE0A9091FF0A9183808349CE07
:10100000808191818737980751F29093FF0A8093EE
:10101000FE0AC5CF1092FF0A1092FE0A3ACE0E9435
:101020003201DC0112960D911C910115110509F494
:10103000E8CED801ED91FC910190F081E02DBE0148
:101040006B5E7F4FC8010995811123CEF8010085A1
:101050001185EBCF181619060CF41BCED2CEF1E099
:10106000FF12BECE62EF70E004CFCF93DF93E1E6D4
:10107000F1E01382128288EE93E0A0E0B0E0848376
:101080009583A683B78385E291E0918380838FEF78
:101090009FEF958784878FB7F8944091B101509165
:1010A000B2016091B3017091B4018FBFC5EBD1E083
:1010B000188219821A821B8281E08C838FEF8D83C4
:1010C0001E821F82188619861B861A861D861C861C
:1010D00061E089E00E94B701E1E8F1E0E491F0E02D
:1010E000EE0FFF1FE659FE4F859194919F878E87E3
:1010F000E4E5F1E0E491EA8B61E088E00E94B70169
:10110000E0E8F1E0E491F0E0EE0FFF1FE659FE4F5A
:1011100085919491998B888BE3E5F1E0E491EB8BD9
:1011200088E99AE39F8F8E8F18A219A21AA21BA298
:101130001CA21DA21EA21FA218A61DA61EA61FA6A7
:1011400018AA19AA1AAA1BAA1CAA1DAA1EAA1FAA73
:1011500018AE19AE1AAE1BAE1CAE1DAE1EAE10926E
:10116000F4011092F5011092F6011092F70180E05F
:1011700090E0A6E9B3E48093F8019093F901A0937D
:10118000FA01B093FB011092FC011092FD01109244
:10119000FE011092FF01109207021092060285E0F4
:1011A0009DE0A0E0B0E08C8B9D8BAE8BBF8B88EE7A
:1011B00093E0998F888F8CE291E090930102809365
:1011C00000028EE094E7AAEDBAE3809302029093C6
:1011D0000302A0930402B093050282E599E4ADE90D
:1011E000B9E38A8F9B8FAC8FBD8F84EE98E3AEE816
:1011F000BFE389A79AA7ABA7BCA7DF91CF910895BA
:10120000CF93DF93CDB7DEB728970FB6F894DEBF44
:101210000FBECDBF789484B5826084BD84B58160F3
:1012200084BD85B5826085BD85B5816085BD8091B1
:101230006E00816080936E00109281008091810029
:101240008260809381008091810081608093810021
:101250008091800081608093800080919100826005
:1012600080939100809191008160809391008091A2
:1012700090008160809390008091C1008460809391
:10128000C1008091C10082608093C1008091C10043
:1012900081608093C1008091C30081608093C3000E
:1012A0008091C00082608093C0008091C200816004
:1012B0008093C20080917A00846080937A0080914C
:1012C0007A00826080937A0080917A0081608093B6
:1012D0007A0080917A00806880937A001092600191
:1012E00010924501109244018091D7008160809353
:1012F000D70080EA8093D80089B5806189BD89B51F
:10130000826089BD09B400FEFDCF0E940D0280916C
:10131000D8008F7C80618093D8008091E000807F2E
:101320008093E0008091E1008E7E8093E1008DE06B
:101330008093E200559A209A5D98289862E080E0B8
:101340000E94B70161E089E00E94B70161E088E096
:101350000E94B70161E084E00E94B70160E084E090
:101360000E9446018DEE93E090931101809310014D
:10137000809169008F7C806180936900EA9A81E0A6
:101380008093F3018091060290910702892BD1F09E
:101390000E94E8016093E2017093E3018093E4010D
:1013A0009093E5016093D9017093DA018093DB019A
:1013B0009093DC016093D5017093D6018093D7019F
:1013C0009093D801109207021092060280E094E2F6
:1013D000A4E7B9E48093F8019093F901A093FA018E
:1013E000B093FB018091000290910102892B61F47E
:1013F00081E090E0A0E0B0E08093C9019093CA0141
:10140000A093CB01B093CC0188EE93E09093CE01F2
:101410008093CD01109201021092000210920202FC
:101420001092030210920402109205021092CF0152
:101430001092D0011092D1011092D2018091160128
:1014400090911701A0911801B09119018093B501F5
:101450009093B601A093B701B093B8011092E60142
:101460001092E7011092E8011092E90103E010E008
:1014700080E0282E80E0382E80914A0190914B0127
:10148000A0914C01B0914D018C349440A105B1055F
:101490005CF180914A0190914B01A0914C01B09177
:1014A0004D018D369740A105B105F4F420914A0114
:1014B00030914B0140914C0150914D012A513440E3
:1014C00041095109A0E2B3E00E94740E24E833E020
:1014D00040E050E00E94550E2093460130934701B2
:1014E0004093480150934901C0904601D090470174
:1014F000E0904801F0904901809116019091170108
:10150000A0911801B0911901C816D906EA06FB0688
:1015100009F47CC0C092EA01D092EB01E092EC01A8
:10152000F092ED018090B5019090B601A090B701C6
:10153000B090B801C814D904EA04FB0409F45EC0F1
:101540004090F8015090F9016090FA017090FB0111
:101550008091000290910102892B51F020E030E04F
:1015600040EA50E4C301B2010E941D0F87FF1BC077
:10157000A301920160E074E284E799E40E94220FE3
:101580000E94940F6093C9017093CA018093CB01AC
:101590009093CC0181E08C149D04AE04BF040CF048
:1015A0008FEF8093B90181E08093F2011092F401F2
:1015B0001092F5011092F6011092F7010E94E801D5
:1015C0006093E2017093E3018093E4019093E5015D
:1015D0006093D9017093DA018093DB019093DC0171
:1015E0006093D5017093D6018093D7019093D80171
:1015F0006091BB018091BA010E944601C092160120
:10160000D0921701E0921801F09219014AE0C70147
:10161000B601F7FE0DC06DE281E691E00E946C0319
:1016200066277727CB016C197D098E099F094AE04F
:101630000E94390442E050E063E371E081E691E00A
:101640000E94EB028091F201882309F4EEC10E940E
:10165000E8016093EE017093EF018093F0019093A5
:10166000F1012091060230910702809100029091D1
:101670000102232B09F03FC2892B09F464C1809138
:10168000F8019091F901A091FA01B091FB018983D1
:101690009A83AB83BC8320E030E040EA50E4BC0195
:1016A000CD010E94751087FD4EC18090EE01909093
:1016B000EF01A090F001B090F101C090D901D0905D
:1016C000DA01E090DB01F090DC016091CD017091D6
:1016D000CE0190E080E08C189D08AE08BF08861609
:1016E0009706A806B90608F42EC1C60ED71EE81E36
:1016F000F91EC092D901D092DA01E092DB01F0929A
:10170000DC018090EA019090EB01A090EC01B09098
:10171000ED01C090B501D090B601E090B701F09016
:10172000B8018C189D08AE08BF08C090E601D090A3
:10173000E701E090E801F090E9010E94C30F2091D9
:10174000CF013091D0014091D1015091D2010E943E
:101750007A106D837E838F839887A7019601C701D6
:10176000B6010E947A10209102023091030240914A
:101770000402509105020E947A102B013C01C50120
:10178000B401B7FE07C066277727CB01681979092E
:101790008A099B090E94C50F9B01AC01C301B201DC
:1017A0000E94751087FD0EC020E030E0A901C7013E
:1017B000B6010E94751087FD07C020E030E040E8C8
:1017C0005FEB06C0B7FCF9CF20E030E040E85FE314
:1017D0006D817E818F8198850E947A10A701960184
:1017E0000E94B10E4B015C014090F4015090F50154
:1017F0006090F6017090F70120E030E0A901C3018C
:10180000B2010E941D0F81114EC0C980DA80EB80A9
:10181000FC80F7FAF094F7F8F094A7019601B40170
:10182000C5010E941D0F87FD0EC09401A5016981AD
:101830007A818B819C810E941D0F87FF4DC0C980DA
:10184000DA80EB80FC80C092E601D092E701E09262
:10185000E801F092E901C090E601D090E701E09044
:10186000E801F090E90120E030E0A901C701B601EC
:101870000E94751018169CF520E030E040EA50E414
:10188000C701B6010E94751018169CF180E49DE016
:10189000A3E0B0E08093C9019093CA01A093CB016B
:1018A000B093CC0144C073016201F7FAF094F7F8E9
:1018B000F094A7019601B401C5010E941D0F87FD98
:1018C000C2CFA3019201B401C5010E94751073013A
:1018D000620118160CF4B7CF64017501B4CF20E093
:1018E00030E040EA50ECC701B6010E941D0F87FFAF
:1018F000CDCFA701960160E074E284E799E40E94ED
:10190000220F4B015C0120E030E0A9010E9475101C
:1019100018160CF091C0C501B4010E94940F609399
:10192000C9017093CA018093CB019093CC0120E050
:1019300030E0A901C701B6010E94751087FD80C083
:1019400081E08093B9014091C9015091CA01609131
:10195000CB017091CC01411551056105710509F468
:1019600064C08091EE019091EF01A091F001B091DF
:10197000F101C090E201D090E301E090E401F09029
:10198000E5018C199D09AE09BF0984179507A607C3
:10199000B70708F44AC08091EE019091EF01A09141
:1019A000F001B091F1018093E2019093E301A093E3
:1019B000E401B093E501C090B501D090B601E0908C
:1019C000B701F090B8018091060290910702892B2F
:1019D00009F049C08091EA019091EB01A091EC01DE
:1019E000B091ED018C159D05AE05BF05E1F5109296
:1019F000F2011092F4011092F5011092F60110928A
:101A0000F7011092E6011092E7011092E80110929E
:101A1000E9018091F301882341F06091BB01A1E0CD
:101A20006A278091BA010E9446012114310409F409
:101A300023CD0E94000020CDC501B40190586DCF88
:101A40008FEF7FCF8FEFD7C0C501B4019058E9C0A9
:101A500024EB32EA41E959EBC701B6010E94751047
:101A600087FD71CF02C18091B901482F082E000C6B
:101A7000550B660B770B4C0D5D1D6E1D7F1D409346
:101A8000B5015093B6016093B7017093B80190917E
:101A9000BD01891799F08093BD01E091C501F091D6
:101AA000C60191E018160CF090E08091BC019817E7
:101AB000E1F08091C8019081892B80838091C701DA
:101AC000E091C301F091C4019081892B8083C8010A
:101AD0000197F1F78091C701E091C301F091C40132
:101AE0009081809589238083A0CF8091C8019081C7
:101AF00080958923E2CF892B09F425CF8091EE01CF
:101B00009091EF01A091F001B091F1014091D301CA
:101B10005091D401C090D501D090D601E090D7016A
:101B2000F090D8018C199D09AE09BF0970E060E002
:101B300084179507A607B70708F405CF8091EE0133
:101B40009091EF01A091F001B091F1018093D50146
:101B50009093D601A093D701B093D801C090E6012D
:101B6000D090E701E090E801F090E901CB01BA01E3
:101B70000E94C30F2091CF013091D0014091D1013B
:101B80005091D2010E947A104B015C01A70196018D
:101B90006091FC017091FD018091FE019091FF0127
:101BA0000E94B00E20E030E0A9010E94751020E0F4
:101BB00030E040E85FE387FF04C020E030E040E829
:101BC0005FEBC501B4010E947A10A70196010E9443
:101BD000B10E6B017C01C092E601D092E701E09268
:101BE000E801F092E90120E030E0A9010E947510BF
:101BF00087FD28CF81E08093B901A701960160E0BD
:101C000074E284E799E40E94220F4B015C0120E01A
:101C100030E0A9010E94751018160CF015CFC5010F
:101C2000B4010E94940F6093C9017093CA0180931C
:101C3000CB019093CC018091DD01882309F483CE00
:101C400020E030E0A901C701B6010E947510181606
:101C50000CF0FECE24EB32EA41E959E3C701B601AC
:101C60000E941D0F18160CF46ECE1092F201109205
:101C7000F4011092F5011092F6011092F701109202
:101C8000E6011092E7011092E8011092E9018091BB
:101C9000F301882309F457CE6091BB0191E06927D5
:101CA0008091BA010E9446014ECE052E97FB1EF48C
:101CB00000940E946C0E57FD07D00E947F0E07FC17
:101CC00003D04EF40C946C0E5095409530952195B0
:101CD0003F4F4F4F5F4F0895909580957095619558
:101CE0007F4F8F4F9F4F08950E94A10EA59F900D8B
:101CF000B49F900DA49F800D911D11240895A1E221
:101D00001A2EAA1BBB1BFD010DC0AA1FBB1FEE1F75
:101D1000FF1FA217B307E407F50720F0A21BB30BC0
:101D2000E40BF50B661F771F881F991F1A9469F73C
:101D300060957095809590959B01AC01BD01CF0198
:101D40000895A29FB001B39FC001A39F700D811D94
:101D50001124911DB29F700D811D1124911D0895B4
:101D60005058BB27AA270E94C80E0C943B100E9413
:101D70002D1038F00E94341020F039F49F3F19F4F0
:101D800026F40C942A100EF4E095E7FB0C94241032
:101D9000E92F0E944C1058F3BA17620773078407A3
:101DA000950720F079F4A6F50C946E100EF4E095EA
:101DB0000B2EBA2FA02D0B01B90190010C01CA0105
:101DC000A0011124FF27591B99F0593F50F4503EB0
:101DD00068F11A16F040A22F232F342F4427585FA2
:101DE000F3CF469537952795A795F0405395C9F7BA
:101DF0007EF41F16BA0B620B730B840BBAF0915072
:101E0000A1F0FF0FBB1F661F771F881FC2F70EC010
:101E1000BA0F621F731F841F48F4879577956795E3
:101E2000B795F7959E3F08F0B0CF9395880F08F0CF
:101E30009927EE0F9795879508950E94001008F452
:101E400081E008950E94360F0C943B100E943410DC
:101E500058F00E942D1040F029F45F3F29F00C94B7
:101E6000241051110C946F100C942A100E944C10E5
:101E700068F39923B1F3552391F3951B550BBB27B9
:101E8000AA2762177307840738F09F5F5F4F220FFE
:101E9000331F441FAA1FA9F335D00E2E3AF0E0E8F5
:101EA00032D091505040E695001CCAF72BD0FE2F3F
:101EB00029D0660F771F881FBB1F261737074807D3
:101EC000AB07B0E809F0BB0B802DBF01FF2793588B
:101ED0005F4F3AF09E3F510578F00C9424100C941B
:101EE0006F105F3FE4F3983ED4F38695779567953E
:101EF000B795F7959F5FC9F7880F911D96958795C0
:101F000097F90895E1E0660F771F881FBB1F6217DE
:101F100073078407BA0720F0621B730B840BBA0B9C
:101F2000EE1F88F7E09508950E94541088F09F579F
:101F300098F0B92F9927B751B0F0E1F0660F771FED
:101F4000881F991F1AF0BA95C9F714C0B13091F0E3
:101F50000E946E10B1E008950C946E10672F782FD8
:101F60008827B85F39F0B93FCCF3869577956795A8
:101F7000B395D9F73EF490958095709561957F4F14
:101F80008F4F9F4F0895E89409C097FB3EF49095BA
:101F90008095709561957F4F8F4F9F4F9923A9F042
:101FA000F92F96E9BB279395F695879577956795D1
:101FB000B795F111F8CFFAF4BB0F11F460FF1BC015
:101FC0006F5F7F4F8F4F9F4F16C0882311F096E9A8
:101FD00011C0772321F09EE8872F762F05C0662356
:101FE00071F096E8862F70E060E02AF09A95660F0F
:101FF000771F881FDAF7880F9695879597F90895C8
:10200000990F0008550FAA0BE0E8FEEF1616170609
:10201000E807F907C0F012161306E407F50798F071
:10202000621B730B840B950B39F40A2661F0232B8A
:10203000242B252B21F408950A2609F4A140A69506
:102040008FEF811D811D089597F99F6780E870E0EB
:1020500060E008959FEF80EC089500240A9416161E
:10206000170618060906089500240A941216130686
:10207000140605060895092E0394000C11F4882314
:1020800052F0BB0F40F4BF2B11F460FF04C06F5F30
:102090007F4F8F4F9F4F089557FD9058440F551F06
:1020A00059F05F3F71F04795880F97FB991F61F0DA
:1020B0009F3F79F087950895121613061406551F51
:1020C000F2CF4695F1DF08C0161617061806991FBD
:1020D000F1CF86957105610508940895E894BB27B2
:1020E00066277727CB0197F908950E94001008F41E
:1020F0008FEF08950E948D100C943B100E942D10BC
:1021000038F00E94341020F0952311F00C94241024
:102110000C942A1011240C946F100E944C1070F330
:10212000959FC1F3950F50E0551F629FF001729F7C
:10213000BB27F00DB11D639FAA27F00DB11DAA1F8B
:10214000649F6627B00DA11D661F829F2227B00DD8
:10215000A11D621F739FB00DA11D621F839FA00D63
:10216000611D221F749F3327A00D611D231F849FB3
:10217000600D211D822F762F6A2F11249F5750400A
:102180009AF0F1F088234AF0EE0FFF1FBB1F661F85
:10219000771F881F91505040A9F79E3F510580F04E
:1021A0000C9424100C946F105F3FE4F3983ED4F32A
:1021B000869577956795B795F795E7959F5FC1F7F2
:1021C000FE2B880F911D9695879597F90895EE0F30
:0E21D000FF1F0590F491E02D0994F894FFCFC5
:1021DE00FFFFFFFF00E100000000000025022502C6
:1021EE002502250225029001000000C18081000019
:1021FE0000000000006C03EB028D038203D30391F9
:06220E0003AF030D0A00FE
:00000001FF
